:100000000C9493010C94B0010C94B0010C94B001C9
:100010000C94B0010C94B0010C94B0010C94B0019C
:100020000C94B0010C94B0010C94B0010C94B0018C
:100030000C94B0010C94B0010C94B0010C94B0017C
:100040000C94B0010C94B0010C9487080C94B0018E
:100050000C94B0010C94B0010C94B0010C94B0015C
:100060000C94B0010C94B0010D0A0D0A73646C6F0E
:10007000636B65720D0A000D0A5465737420726516
:100080006164206F6620626C6F636B2030206F6E3E
:1000900020534420636172642E2E2E006661696CC9
:1000A00065643B20756E61626C6520746F207265BB
:1000B0006164204353442E006661696C65643B2093
:1000C000726573706F6E7365207761732025642E7F
:1000D000006661696C65643B2063616E6E6F7420BD
:1000E000726561642043534420746F20636F6E66B1
:1000F00069726D2E00646F6E652E000D0A436C658B
:100100006172696E672074656D706F7261727920BB
:100110006C6F636B206F6E20534420636172642E9A
:100120002E2E006661696C65643B20756E61626CA1
:100130006520746F2072656164204353442E00660D
:1001400061696C65643B20726573706F6E736520C6
:100150007761732025642E006661696C65643B20BD
:1001600063616E6E6F742072656164204353442036
:10017000746F20636F6E6669726D2E00646F6E65BA
:100180002E000D0A53657474696E672074656D7076
:100190006F72617279206C6F636B206F6E205344B5
:1001A00020636172642E2E2E000D0A556E61626C02
:1001B0006520746F2072656164204353442E0025CE
:1001C00030325820000D0A434944203D200025309C
:1001D000325820000D0A435344203D200025303280
:1001E0005820000D0A4F4352203D20000D0A436164
:1001F00072642074797065202564000A0D0A0D432D
:10020000616E6E6F7420696E697469616C697A657C
:1002100020636172642E20204D616B6520737572BE
:100220006520746865206361726420697320706C56
:10023000756767656420696E2070726F7065726C97
:10024000792E000A0D4578616D696E6553442E2E36
:100250002E002530325820000A0D4361726420734D
:100260007461747573203D20000A0D52656164430A
:10027000534428292C2073645F776169745F666F2B
:10028000725F646174612072657475726E7320258B
:100290003032782E0020436172642043432066612F
:1002A000696C6564210020436172642045434320EA
:1002B0006661696C656421002041646472657373D2
:1002C000206973206F7574206F662072616E676598
:1002D00021002043617264206973206C6F636B6539
:1002E0006421000A0D44617465206572726F723A70
:1002F000002025730A0D0025303258200020257378
:100300000A0D253034583A20000A0D436F6E74658B
:100310006E7473206F6620626C6F636B206275660B
:100320006665723A000011241FBECFEFD8E0DEBF31
:10033000CDBF11E0A0E0B1E0E2E5F8E102C0059038
:100340000D92AC31B107D9F714E0ACE1B1E001C0D6
:100350001D92A239B107E1F70E946C030C94270C9F
:100360000C9400000F931F93CF93DF93AB01BC015C
:10037000A0E0CBE2D0E004EF11E0E8ECF0E077237E
:100380002CF4888184608883980109C088818B7FE0
:100390008883411551056105710579F09801CF01F8
:1003A0000197F1F721503040D1F7AF5FA03229F02B
:1003B000440F551F661F771FE2CFDF91CF911F912A
:1003C0000F910895EBE2F0E080818B7F8083808144
:1003D000877F808380917A0484FF04C08081846059
:1003E00080830895EBE2F0E0808188608083089547
:1003F000E5E2F0E080818460808308958EBDEDE4C5
:10040000F0E080818823ECF78EB50895DF92EF92BB
:10041000FF920F931F93D82E7A018B0188235CF4EF
:1004200087E740E050E060E070E00E940602823022
:10043000E8F58FE7D8220E94F8018FEF0E94FE01B5
:10044000E5E2F0E080818B7F80838FEF0E94FE01E8
:100450008D2D80640E94FE01812F9927AA27BB273A
:100460000E94FE01C801AA27BB270E94FE01BB27EC
:10047000A12F902F8F2D0E94FE018E2D0E94FE0134
:1004800080E4D81611F485E906C088E4D81611F482
:1004900087E801C081E00E94FE0110E08FEF0E941A
:1004A000FE0188231CF41F5F1A30C1F71F910F91C2
:1004B000FF90EF90DF900895CF92DF92EF92FF923E
:1004C0001F93CF93DF938BE540E050E060E070E056
:1004D0000E9406028823E9F58EEF0E94FE01CCE619
:1004E000D4E010E00F2EFBE6CF2EF3E0DF2EF02D50
:1004F0000F2EFBE7EF2EF4E0FF2EF02D88810E94F7
:10050000FE01812F90E0880F991F299130E082270A
:100510009327F601E80FF91F1081CE15DF0571F75B
:10052000812F880F8F5F0E94FE018FEF0E94FE01D6
:100530008FEF0E94FE01CFEFDFEF8FEF0E94FE01F1
:10054000882319F42197C9F704C0CD2B11F080E05E
:1005500001C08FEFDF91CF911F91FF90EF90DF905F
:10056000CF900895EF92FF920F931F93EFE5F1E084
:10057000DF011D921C921282138280916B048230E3
:1005800051F588E44AEA51E060E070E00E9406021A
:10059000882309F049C08FEF0E94FE010F2EFFE56E
:1005A000EF2EF1E0FF2EF02DF70181938F018FEFF9
:1005B0000E94FE01F80180838FEF0E94FE01F70187
:1005C00082838FEF0E94FE01F70183838FEF0E94E9
:1005D000FE0180E02AC08AE740E050E060E070E081
:1005E0000E940602882301F58FEF0E94FE010F2E64
:1005F000FFE5EF2EF1E0FF2EF02DF70181938F0143
:100600008FEF0E94FE01F80180838FEF0E94FE01B0
:10061000F70182838FEF0E94FE01F70183838FEF42
:100620000E94FE0180E001C08FEF1F910F91FF90AB
:10063000EF900895CF93DF93C0E0D0E08FEF0E945A
:10064000FE018F3F21F42196C436D105B9F7DF9121
:10065000CF9108950F931F93CF93DF930CE614E08F
:10066000E8018CE794E01992C817D907E1F789E40B
:1006700040E050E060E070E00E9406020E941A0331
:10068000282F8E3FB9F000D000D0EDB7FEB73196DD
:1006900089E692E091838083822F992787FD909548
:1006A000938382830E9476098FEF0F900F900F90B3
:1006B0000F900DC08FEF0E94FE01F80181938F0112
:1006C000EC17FD07B9F78FEF0E94FE0180E0DF9184
:1006D000CF911F910F9108952F923F924F925F9269
:1006E0006F927F928F929F92AF92BF92CF92DF9242
:1006F000EF92FF920F931F93DF93CF93CDB7DEB7A7
:100700006A970FB6F894DEBF0FBECDBF04E210E0CB
:10071000D8018C9184608C930E94F801E5E2F0E0AE
:10072000808188628083D8018C9188628C938081DB
:100730008061808383E58CBDABE2B0E08C918B7FE0
:100740008C93EAE2F0E08081846080838C91877FE3
:100750008C93808188608083E7E2F0E080818C7FE9
:100760008083E8E2F0E080818360808389E190E02B
:1007700069E170E00E942808EEE8F4E020E031E052
:10078000318320838EE091E092938293358324839A
:10079000789400D088E690E0EDB7FEB7928381832D
:1007A0000E947609EBE6F3E040E050E00F900F90F6
:1007B00039E861E070E044231CF4842F832701C0F2
:1007C000842F8083282FCB01220F0AF42327019640
:1007D00088309105C9F721934F5F5F4F81E040302A
:1007E000580749F724EF31E083E691E0282E988FEF
:1007F000A3E6B3E0BB8BAA8B8CE794E0898F9A8F3A
:10080000E3E6F3E03196FD8BEC8B8FE591E001960A
:100810009F8B8E8B06C088EC90E00197F1F72150FA
:10082000304021153105B9F70E943A08892BB1F003
:100830000E942D09853721F48824689481F81DC011
:100840008C3619F48824839418C08F3321F48824BB
:10085000689482F812C0823709F4F5C3309903C056
:10086000882483940AC0319904C08824689481F84C
:1008700004C00F2EF3E08F2EF02D80911C018815FF
:1008800009F4DCC3833009F0D9C310926B040E94D1
:10089000F80100E010E08FEF0E94FE010F5F1F4F94
:1008A0000A301105C1F700E010E080E440E050E0BC
:1008B00060E070E00E940602813041F00F5F1F4F40
:1008C0000031110591F7813009F054C088E44AEAFB
:1008D00051E060E070E00E9406028130E1F400E047
:1008E00010E08FEF0E94FE010F5F1F4F04301105D3
:1008F000C1F700E21EE489EE40E050E060E070E401
:100900000E940602882319F001501040A1F782E0EE
:1009100080936B042BC08AE740E050E060E070E019
:100920000E940602813011F500E010E08FEF0E9476
:10093000FE010F5F1F4F04301105C1F700E21EE4F6
:1009400081E440E050E060E070E00E94060288230D
:1009500019F001501040A1F780E540E052E060E05E
:1009600070E00E94060281E080936B048FEF0E948A
:10097000FE0113C000D08BEF91E0ADB7BEB7129669
:100980009C938E9311970E9476090F900F9060E0D0
:1009900078EC80E098EC0E94B201B4E08B1609F08C
:1009A00048C1EBE2F0E080818B7F80838081877F8C
:1009B000808300D000D0EDB7FEB731968CEE91E089
:1009C0009183808380916B04828313820E947609D5
:1009D0000F900F9083E492E0EDB7FEB7928381838E
:1009E0000E9476090F900F900E94B2020E942A0383
:1009F000882309F012C10F2EFCE7CF2EF4E0DF2E82
:100A0000F02D898D9A8D7C01D7011D927D01BCE866
:100A1000EB16B4E0FB06C1F78AE440E050E060E08A
:100A200070E00E9406020E941A038E3F09F0F5C092
:100A3000898D9A8D8C018FEF0E94FE01F8018193C0
:100A40008F01EE15FF05B9F78FEF0E94FE018DE4CF
:100A500040E050E060E070E00E940602882309F068
:100A6000DCC08FEF0E94FE01A3E6B3E08C938FEF12
:100A70000E94FE01EC89FD8980838FEF0E94FE01B8
:100A8000809365038FEF0E94FE01809366038FEFD2
:100A90000E94FE0100D083EE91E0ADB7BEB7129682
:100AA0009C938E9311970E94760900D0EDB7FEB704
:100AB00031960DED11E011830083AFE5B1E08C912B
:100AC000828313820E947609EDB7FEB731961183B7
:100AD0000083AE89BF898C91828313820E9476093C
:100AE000EDB7FEB731961183008380916101828357
:100AF00013820E947609EDB7FEB731961183008309
:100B000080916201828313820E9476090F900F9078
:100B100084ED91E0EDB7FEB7928381830E94760960
:100B20000CE614E00F900F9000D000D0EDB7FEB7A8
:100B300031968EEC91E091838083D8018D918D0167
:100B4000828313820E9476090F900F900F900F906E
:100B5000B4E00C371B0741F700D085EC91E0EDB70E
:100B6000FEB7928381830E9476090F900F9000D088
:100B700000D0EDB7FEB731968FEB91E09183808383
:100B8000D6018D916D01828313820E9476090F90A8
:100B90000F900F900F90EC14FD0449F700D088E5FA
:100BA00092E0EDB7FEB7928381830E94760900D070
:100BB000EDB7FEB7319602E512E011830083A3E69C
:100BC000B3E08C91828313820E947609EDB7FEB761
:100BD000319611830083AC89BD898C918283138205
:100BE0000E947609EDB7FEB731961183008380919C
:100BF0006503828313820E947609EDB7FEB73196B2
:100C00001183008380916603828313820E94760998
:100C10000F900F900F900F9011C200D089EA91E0D1
:100C2000EDB7FEB7928381830E9476090F900F90F3
:100C300005C2F1E08F1609F070C0EBE2F0E08081B0
:100C40008B7F80838081877F808300D082E891E0E2
:100C5000ADB7BEB712969C938E9311970E947609FA
:100C60000F900F900E942A03882309F044C0EAE7FE
:100C7000F4E08081806180830E945C02282F8823B9
:100C800011F50E94B2020E942A03882371F40E9487
:100C9000E20100D08CE791E0EDB7FEB7928381834B
:100CA0000E9476090F900F90C9C100D088E591E0AD
:100CB000ADB7BEB712969C938E9311970E9476099A
:100CC0000F900F90BBC100D000D0EDB7FEB73196AA
:100CD0008FE391E091838083228313820E947609BF
:100CE0000F900F900F900F9060E070E080E095EA19
:100CF0000E94B201A3C100D083E291E0EDB7FEB73C
:100D0000928381830E9476090F900F9060E078ECC7
:100D100080E098EC0E94B20191C1F2E08F1609F0D8
:100D200070C0EBE2F0E080818B7F80838081877FE1
:100D3000808300D08BEF90E0ADB7BEB712969C9346
:100D40008E9311970E9476090F900F900E942A03AC
:100D5000882309F044C0EAE7F4E080818F7E808335
:100D60000E945C02282F882311F50E94B2020E9483
:100D70002A03882371F40E94E20100D085EF90E0FD
:100D8000EDB7FEB7928381830E9476090F900F9092
:100D900055C100D081ED90E0ADB7BEB712969C93DF
:100DA0008E9311970E9476090F900F9047C100D043
:100DB00000D0EDB7FEB7319688EB90E09183808349
:100DC000228313820E9476090F900F900F900F904C
:100DD00060E070E080E095EA0E94B2012FC100D08F
:100DE0008CE990E0EDB7FEB7928381830E9476098B
:100DF0000F900F9060E078EC80E098EC0E94B201D8
:100E00001DC1F5E08F1609F019C100D0E7E7F0E049
:100E1000ADB7BEB71296FC93EE9311970E94760978
:100E20000F900F9081E540E050E060E070E00E949C
:100E30000602882309F002C10E941A038E3F09F4BA
:100E40004EC0082F112707FD1095802F807E09F0D6
:100E5000F5C000D083EE92E0ADB7BEB712969C937A
:100E60008E9311970E9476090F900F9004FF0BC08C
:100E700000D082ED92E0EDB7FEB7928381830E94AD
:100E800076090F900F9003FF0DC000D088EB92E021
:100E9000ADB7BEB712969C938E9311970E947609B8
:100EA0000F900F9002FF0BC000D086EA92E0EDB7E2
:100EB000FEB7928381830E9476090F900F9001FF05
:100EC000BDC000D085E992E0ADB7BEB712969C9345
:100ED0008E9311970E9476090F900F90AFC00F2E3E
:100EE000F3E66F2EF1E07F2EF02D822D988D8C0190
:100EF0008FEF0E94FE01F80181938F01F3E003362A
:100F00001F07B1F78FEF0E94FE018FEF0E94FE01D5
:100F1000198A198200D0E9E0F3E0ADB7BEB71296A6
:100F2000FC93EE9311970E947609AA24BB246501D5
:100F30000F900F902E010894411C511C0F2EFEE2C1
:100F40003F2EF02D0F2EFFE0EF2EF0E0FF2EF0E011
:100F50000F2FF0E01F2FF02DEA20FB200C211D2188
:100F6000E114F10401051105F9F48DB79EB7089756
:100F70000FB6F8949EBF0FBE8DBFEDB7FEB731968A
:100F8000ADEFB2E0B183A08353824282A482B582E6
:100F9000C682D7820E947609EDB7FEB738960FB6A3
:100FA000F894FEBF0FBEEDBF00D000D0EDB7FEB786
:100FB000319687EF92E091838083D3018C91828375
:100FC00013820E947609F30190800F900F900F908A
:100FD0000F90892D90E00E944309892B29F4892DD7
:100FE00090E0C0970A9728F4F201EE0DFF1D908261
:100FF00004C0F201EE0DFF1D30820894A11CB11C4B
:10100000C11CD11C0894611C711C8A899B896816BB
:10101000790609F097CF00D000D0EDB7FEB7319632
:10102000A1EFB2E0B183A083CE01019693838283C6
:101030000E9476090F900F900F900F9080921C01E4
:1010400024EF31E0EECB0F2EF5E08F2EF02D15CCF6
:101050009C0182E08093C00088E98093C10086E013
:101060008093C2002115310521F01092C500209314
:10107000C400089580918C0490918D048E5091400D
:1010800019F020E030E00AC090911D0180911E010E
:1010900020E030E0981711F021E030E0C901089518
:1010A000A0918C04B0918D04109719F42FEF3FEFAD
:1010B00007C01A96ED91FC911B97CD0109959C01F3
:1010C000C90108958093C6008091C00085FFFCCFC0
:1010D00080E090E0089590911D0180911E01981785
:1010E000D1F3E0911E01F0E0E15EFE4FE0818091DE
:1010F0001E018F5F80931E0180911E018F7380936C
:101100001E01ED3009F4EAE08E2F90E008951F9261
:101110000F920FB60F9211248F939F93EF93FF932B
:10112000E0911D01F0E08091C600E15EFE4F8083FA
:1011300080911D018F5F80931D0180911D018F7330
:1011400080931D0190911D0180911E01981751F40B
:1011500080911E018F5F80931E0180911E018F730D
:1011600080931E01FF91EF919F918F910F900FBE81
:101170000F901F901895AF92BF92CF92DF92FF927F
:101180000F931F93CF93DF93FC015A0110828C01C0
:10119000FF24C62EDD240894C108D108A114B1048F
:1011A00011F0F50109950E943A08892BB9F30E94C4
:1011B0005008EC018A30910509F444C08B30910548
:1011C0002CF58FEFCF3FD807E9F1C830D105F1F406
:1011D000FF20A9F160918E0470918F0488E090E067
:1011E0000E944A0960918E0470918F0480E290E021
:1011F0000E944A0960918E0470918F0488E090E00B
:101200000E944A0901501040FA9419C0C032D10519
:10121000B4F060918E0470918F04CE010E944A094F
:101220008F2D90E08C159D052CF4F801C1938F0152
:10123000F39405C0F801C2938F010F5F1F4FF801AF
:101240001082ACCF8F2DDF91CF911F910F91FF9026
:10125000DF90CF90BF90AF900895CF93DF930E941F
:101260005008EC018FEFCF3FD80739F060918E0422
:1012700070918F04CE010E944A09CE01DF91CF9177
:10128000089585FD36C28062911133C281568A511C
:10129000E0F708950F931F93CF93DF938C01EB0139
:1012A0008B8181FF1BC082FF0DC02E813F818C810D
:1012B0009D812817390764F4E881F9810193F98346
:1012C000E88306C0E885F985802F0995892B31F4DC
:1012D0008E819F8101969F838E8302C00FEF1FEF47
:1012E000C801DF91CF911F910F910895A0E0B0E068
:1012F000ECE7F9E00C94000CFE01359661917191D8
:10130000A0918E04B0918F0413968C9113978860EE
:1013100013968C9380918E0490918F04AF010E945C
:101320009C09E0918E04F0918F042381277F238311
:101330002096E2E00C941C0CABE0B0E0E2EAF9E0AD
:101340000C94F00B3C012B015A01FC011782168210
:10135000838181FD03C06FEF7FEFC6C19AE0892EC4
:101360001E010894211C311CF3012381F20123FD8D
:10137000859123FF81912F01882309F4B2C1853221
:1013800039F423FD859123FF81912F01853229F4C2
:1013900090E0B3010E944A09E7CF982FFF24EE2482
:1013A0009924FFE1FF15D0F09B3269F09C3228F4BC
:1013B000903259F0933291F40EC09D3249F090333F
:1013C00069F441E024C052E0F52A84E0F82A28C0FC
:1013D00098E0F92A25C0E0E1FE2A22C0F7FC29C0E6
:1013E000892F80538A3070F4F6FE05C0989C902CAB
:1013F0001124980E15C0E89CE02C1124E80EF0E2B0
:10140000FF2A0EC09E3229F4F6FC6BC140E4F42A98
:1014100007C09C3619F450E8F52A02C0983649F402
:10142000F20123FD959123FF91912F01992309F05A
:10143000B8CF892F8554833018F08052833038F428
:1014400044E050E0A40EB51E5FE359830FC093360D
:1014500031F0933779F0933509F056C020C0F5018B
:101460008081898342E050E0A40EB51E610101E055
:1014700010E012C0F501C080D180F6FC03C06FEF10
:101480007FEF02C0692D70E042E050E0A40EB51E6F
:10149000C6010E94870B8C015FE7F52214C0F5019D
:1014A000C080D180F6FC03C06FEF7FEF02C0692DD2
:1014B00070E042E050E0A40EB51EC6010E947C0B15
:1014C0008C0150E8F52AF3FE07C01AC080E290E0D4
:1014D000B3010E944A09EA948E2D90E0081719077B
:1014E000A8F30EC0F601F7FC8591F7FE81916F011C
:1014F00090E0B3010E944A09E110EA9401501040C3
:101500000115110579F7EAC0943611F0993669F59D
:10151000F7FE08C0F501208131814281538184E0CA
:1015200090E00AC0F501808191819C01442737FD3C
:101530004095542F82E090E0A80EB91E9FE6F92254
:1015400057FF09C050954095309521953F4F4F4F1B
:101550005F4FE0E8FE2ACA01B901A1012AE030E0AC
:101560000E94920BD82ED21840C0953729F41F2D17
:101570001F7E2AE030E01DC01F2D197F9F3661F0CD
:10158000903720F4983509F0ACC00FC0903739F08F
:10159000983709F0A6C004C028E030E00AC0106106
:1015A00014FD146020E130E004C014FD166020E159
:1015B00032E017FF08C0F50160817181828193815B
:1015C00044E050E008C0F50180819181BC0180E0D9
:1015D00090E042E050E0A40EB51EA1010E94920BE3
:1015E000D82ED2188FE7F82EF122F6FE0BC05EEF50
:1015F000F522D91438F4F4FE07C0F2FC05C08FEED2
:10160000F82202C01D2D01C0192DF4FE0DC0FE01EF
:10161000ED0DF11D8081803319F499EEF92208C097
:101620001F5FF2FE05C003C08F2D867809F01F5F93
:101630000F2DF3FC14C0F0FE0FC01E1510F09D2CF2
:101640000BC09D2C9E0C911A1E2D06C080E290E0CE
:10165000B3010E944A091F5F1E15C0F304C01E1586
:1016600010F4E11A01C0EE2404FF0FC080E390E003
:10167000B3010E944A0902FF1DC001FD03C088E7B3
:1016800090E00EC088E590E00BC0802F867891F046
:1016900001FF02C08BE201C080E2F7FC8DE290E026
:1016A000B3010E944A0906C080E390E0B3010E94A2
:1016B0004A099A94D914C0F3DA94F101ED0DF11DA1
:1016C000808190E0B3010E944A09DD20A9F706C09D
:1016D00080E290E0B3010E944A09EA94EE20C1F74B
:1016E00043CEF30166817781CB012B96E2E10C9426
:1016F0000C0C992788270895FC01059061507040D3
:101700000110D8F7809590958E0F9F1F0895FC01CA
:101710006150704001900110D8F7809590958E0F20
:101720009F1F0895FA01AA27283051F1203181F135
:10173000E8946F936E7F6E5F7F4F8F4F9F4FAF4FD9
:10174000B1E03ED0B4E03CD0670F781F891F9A1FEC
:10175000A11D680F791F8A1F911DA11D6A0F711DA0
:10176000811D911DA11D20D009F468943F912AE0AC
:10177000269F11243019305D3193DEF6CF01089594
:10178000462F4770405D4193B3E00FD0C9F7F6CFC5
:10179000462F4F70405D4A3318F0495D31FD40528D
:1017A000419302D0A9F7EACFB4E0A6959795879523
:1017B00077956795BA95C9F7009761057105089502
:1017C0009B01AC010A2E06945795479537952795AE
:1017D000BA95C9F7620F731F841F951FA01D089546
:1017E0002F923F924F925F926F927F928F929F9231
:1017F000AF92BF92CF92DF92EF92FF920F931F931F
:10180000CF93DF93CDB7DEB7CA1BDB0B0FB6F894CF
:10181000DEBF0FBECDBF09942A88398848885F840F
:101820006E847D848C849B84AA84B984C884DF8080
:10183000EE80FD800C811B81AA81B981CE0FD11D64
:101840000FB6F894DEBF0FBECDBFED010895F8943A
:02185000FFCFC8
:10185200000000020000000062080000000000001A
:0C18620000010000000000006B08000006
:00000001FF
